:020000020000FC
:1000000010C04FC04FC04FC04FC04FC04FC04FC0B7
:100010004FC04FC04FC04FC04FC04FC04FC04FC068
:100020004FC002E00EBF0FE50DBFF8940FEF07BB06
:100030008A98929A8B98939A08EC0093600001E05A
:10004000009508BB00950CD016D0000FC9F700E84A
:10005000009508BB009504D00ED00695C9F7EFCFE8
:10006000309160002FEF18E01A95F1F72A95D9F733
:100070003A95C1F7089530916000829B03C0839B3D
:1000800007C00895332351F03A95309360000895E6
:100090003F3F21F033953093600008953093600026
:1000A00008951895189518951895189518951895F8
:1000B00018951895189518951895189518951895D8
:0200C000189591
:00000001FF
