:020000020000FC
:1000000010C0E0C0E0C0E0C0E0C0E0C0E0C0E0C0C0
:10001000E0C0E0C0E1C0E1C0E1C0E1C0E1C0E1C0DA
:10002000E1C002E00EBF0FE50DBFF8948A98929AE6
:10003000B89AB99ABA9ABB9A0FE007BB899A00E0BE
:1000400000BD07E609B902E00BB908E90AB906E8FC
:1000500000BD329A8D9A00E00DBD0CBD00E00BBDD5
:100060000ABD09BD08BD02EA0FBD09E00EBD7894C6
:10007000663431F4C19AC098C29AC3987DD087D0B3
:10008000673431F4C19AC098C29AC39875D082D0AF
:10009000693431F4C19AC098C29AC39870D077D0AD
:1000A0006C3431F4C198C09AC29AC39868D072D0A7
:1000B000623531F4C19AC098C298C39A60D06AD0B0
:1000C000683431F4C198C09AC298C39A58D05FD0AE
:1000D0006A3431F4C198C09AC298C39A4DD05AD0AC
:1000E000623431F4C198C09AC298C39A48D052D0B1
:1000F000633521F4C198C098C298C398603319F44D
:1001000050E040E034D0613319F453E340E02FD0A5
:10011000623319F456E640E02AD0633319F459E902
:1001200040E025D0643319F45CEC40E020D0653326
:1001300019F45FEF40E01BD0663319F453E341E05C
:1001400016D0673319F456E641E011D0683319F43C
:1001500059E941E00CD0693319F45CEC41E007D077
:10016000613719F45FEF41E002D060E081CF4BBD11
:100170005ABD49BD58BD08954BBD5ABD0895142FB1
:10018000052F8894179507951BBD0ABD089549BD95
:1001900058BD0895142F052F88941795079519BDFC
:1001A00008BD08955D9BFECF0CB901D00895309134
:1001B000FF002FEF1FEF1A95F1F72A95D9F73A951F
:1001C000C1F70895189518951895189518951895CC
:1001D000189518956CB11895189518951895189547
:0601E00018951895189512
:00000001FF
