:020000020000FC
:1000000010C081C081C081C081C081C081C081C059
:1000100081C081C081C081C081C081C081C081C0D8
:1000200081C012E01EBF1FE51DBFF8941FEF14BB77
:1000300010EC1ABB45D0DE9812E059D0DE9A1CE1D4
:1000400056D012E754D01CE652D011E650D01EE62E
:100050004ED014E64CD01FE64AD010E248D012E54C
:1000600046D015E644D019E742D015E640D013E754
:100070003ED010E23CD011E33AD010E338D0DE9805
:1000800010EC35D0DE9A15E432D01DE630D019E6FA
:100090002ED01CE62CD019E62AD01FE628D010E27C
:1000A00026D010E524D015E622D012E720D015E6A0
:1000B0001ED010E21CD011E31AD010E318D0BBCF31
:1000C000DF98DE9819D018D017D018E310D018E3B5
:1000D0000ED018E30CD018E30AD018E008D011E0D5
:1000E00006D016E004D01CE002D0DE9A089515BBBD
:1000F000DF9A02D0DF9808953DE92FEF2A95F1F7B6
:100100003A95D9F708951895189518951895189552
:100110001895189518951895189518951895189577
:06012000189518951895D2
:00000001FF
