:020000020000FC
:1000000010C0DAC0DBC0DCC0DCC0E3C0E3C0E3C0CA
:10001000E3C0E3C0E3C0E3C0E3C0E3C0E3C0E3C0C8
:10002000E3C002E00EBF0FE50DBFF8940FEF0ABB6F
:100030000FEF04BB06E006B901E00093920000E078
:100040000093910000E00093900067D058D034D026
:1000500001D0FECF0DE247D046D045D000E243D0DC
:100060002091900064D03063032F3DD02063022F95
:100070003AD00AE338D02091910059D03063032F51
:1000800032D02063022F2FD00AE32DD0209192008E
:100090004ED03063032F27D02063022F24D000E2FC
:1000A00022D00DE220D01FD01ED03A9802E01BD003
:1000B00001E019D03A9A089539983A9819D018D091
:1000C00017D008E310D008E30ED008E30CD008E303
:1000D0000AD008E008D001E006D006E004D00CE029
:1000E00002D03A9A089505BB399A02D039980895FA
:1000F00072E38FEF8A95F1F77A95D9F708950DE3BA
:100100000BBD09BD09E00ABD08BD00E40FBD0CE050
:100110000EBD00E409BF789408958A98929A8B984E
:10012000939A0AE005BF00EC0BBF7894089533273B
:100130002A3028F033952A502A30D2F7089530E03B
:10014000FDCF3091920033953C3388F030E0409100
:10015000910043954C3348F040E050919000539506
:10016000583108F050E05093900040939100309344
:10017000920018954091910043954C33B0F340E0C4
:10018000409391001895509190005395583158F331
:1001900050E0509390001895309192003A953AF7BC
:1001A0003BE3409191004A9502F74BE35091900058
:1001B0005A95CAF657E1D7CFE6DF1895DBDF1895D9
:1001C000189500E00DBD0CBD01E010271BBBB9DF89
:1001D00018951895189518951895189518951895B7
:0A01E00018951895189518951895B4
:00000001FF
