:020000020000FC
:1000000010C050C050C050C050C050C050C050C0B0
:1000100050C050C050C050C050C050C050C050C060
:1000200050C092E09EBF9FE59DBFF8949FEF97BBA5
:100030008A98929A8B98939A90E89093600091E0B6
:10004000909598BB90950CD016D0990FC9F790E871
:10005000909598BB909504D00ED09695C9F7EFCFA8
:10006000309160002FEF18E01A95F1F72A95D9F733
:100070003A95C1F708951FE130916000829B03C05B
:10008000839B07C00895343051F0311B30936000DA
:1000900008953C3F21F0310F309360000895309374
:1000A0006000089518951895189518951895189545
:1000B00018951895189518951895189518951895D8
:0400C00018951895E2
:00000001FF
