:020000020000FC
:1000000012E01EBF1FE51DBF10EF1ABB1FE01BBB98
:100010001FEF11BB00E1F89400C002D03BD0FDCF30
:10002000222740E01FE71BBB17D0213099F044E0A6
:100030001FEB1BBB11D0213069F048E01FED1BBB4B
:100040000BD0213039F04CE01FEE1BBB05D0213026
:1000500009F00895042F08952E7FC89902C014D086
:100060000895C99903C043950FD00895CA9904C053
:100070004395439509D00895CB9905C04395439581
:10008000439502D0089508950CD01BB31F30E0F3C0
:1000900021600895F0E0E8EBE00F1491109512BB99
:1000A000089574E651E060E500006A95E9F75A9515
:1000B000D1F77A95B9F708953F065B4F666D7D07D6
:0A00C0007F6F777C395E79710000D4
:00000001FF
