:020000020000FC
:1000000010C049C049C049C049C049C049C049C0E1
:1000100049C049C049C049C049C049C049C049C098
:1000200049C004E00EBF0FEF0DBFF89410E01ABBFB
:100030001FEF1BBB10E011BB1FEF12BB1FEF14BB68
:1000400059B360B360955095561729F05617D0F400
:100050005617E0F0F5CF4FEF45BB3FEF2FEF18E01D
:100060001A95F1F72A95D9F73A95C1F740E045BBC3
:100070003FEF2FEF18E01A95F1F72A95D9F73A9547
:10008000C1F7DECF452B462B45BBDACF4FEF4523DB
:10009000462345BBD5CF18951895189518951895F2
:1000A00018951895189518951895189518951895E8
:0600B00018951895189543
:00000001FF
