:020000020000FC
:100000001EC086C086C086C086C08CC08CC08CC016
:100010008CC08CC08CC08CC08CC08CC08CC08CC080
:100020008CC03F065B4F666D7D077F6F00E00093DD
:10003000600000936100009362000093640002E09E
:100040000EBF0FE50DBFF8940FEF0ABB0FE007BB23
:100050000FEF04BB4FD0809164001BD008E008BBB9
:100060008091620016D004E008BB8091610011D03D
:1000700002E008BB809160000CD001E008BB823038
:1000800031F03A98E8CF823011F03A98E4CF3A9ABA
:10009000E2CFF0E0E2E2E80F049100950BBB089597
:1000A0004091600050916100609162007091640025
:1000B00043954A30B1F440E05395573091F450E005
:1000C00063956A3071F460E07395773051F470E0B5
:1000D00040936000509361006093620070936400ED
:1000E0001895409360005093610060936200709394
:1000F000640018950DE30BBD09BD09E00ABD08BDFC
:1001000000E40FBD0CE00EBD00E409BF7894089533
:100110001895189518950FEF05BB00E00DBD0CBDA7
:10012000BFDF189518951895189518951895189576
:0C013000189518951895189518951895B5
:00000001FF
