:020000020000FC
:020000001FC01F
:0200040084C0B6
:02000800B1C184
:1000400000E001BB0FEF0ABB02BB0FE007BB04E0FF
:100050000EBF0FEF0DBF02E005BF00EC0BBF7894A1
:1000600000E00EE008BB10EC1BBB42D00FEF08BB5A
:100070000DE008BB19EF1BBB3BD00FEF08BB0BE03B
:1000800008BB14EA1BBB34D00FEF08BB07E008BB6A
:1000900010EB1BBB2DD00FEF08BB0EE008BB19E91E
:1000A0001BBB26D00FEF08BB0DE008BB12E91BBB42
:1000B0001FD00FEF08BB0BE008BB12E81BBB18D02A
:1000C0000FEF08BB07E008BB18EF1BBB11D00FEF09
:1000D00008BB0EE008BB10E81BBB0AD00FEF08BB43
:1000E0000DE008BB18E91BBB03D00FEF08BBB9CF6D
:1000F00094E0A6E9B0E8BA95F1F7AA95E1F79A95E8
:10010000D1F70895C0F9A4B0999282F880989F938E
:100110000BD027D043D05FD07BD097D0B3D0CFD0F7
:10012000EBD007D19F9118950EE008BB10EC1BBBDC
:10013000DFDF0FEF08BB0DE008BB10EC1BBBD8DF07
:100140000FEF08BB0BE008BB10EC1BBBD1DF0FEFC0
:1001500008BB07E008BB10EC1BBBCADF0FEF08BBF6
:1001600018950EE008BB19EF1BBBC2DF0FEF08BBF1
:100170000DE008BB19EF1BBBBBDF0FEF08BB0BE0AB
:1001800008BB19EF1BBBB4DF0FEF08BB07E008BBD0
:1001900019EF1BBBADDF0FEF08BB18950EE008BBD6
:1001A00014EA1BBBA5DF0FEF08BB0DE008BB14EA88
:1001B0001BBB9EDF0FEF08BB0BE008BB14EA1BBBA9
:1001C00097DF0FEF08BB07E008BB14EA1BBB90DF0B
:1001D0000FEF08BB18950EE008BB10EB1BBB88DFC8
:1001E0000FEF08BB0DE008BB10EB1BBB81DF0FEF6F
:1001F00008BB0BE008BB10EB1BBB7ADF0FEF08BBA3
:1002000007E008BB10EB1BBB73DF0FEF08BB1895B3
:100210000EE008BB19E91BBB6BDF0FEF08BB0DE05D
:1002200008BB19E91BBB64DF0FEF08BB0BE008BB81
:1002300019E91BBB5DDF0FEF08BB07E008BB19E93D
:100240001BBB56DF0FEF08BB18950EE008BB12E989
:100250001BBB4EDF0FEF08BB0DE008BB12E91BBB59
:1002600047DF0FEF08BB0BE008BB12E91BBB40DF09
:100270000FEF08BB07E008BB12E91BBB39DF0FEF2C
:1002800008BB18950EE008BB12E81BBB31DF0FEF6F
:1002900008BB0DE008BB12E81BBB2ADF0FEF08BB51
:1002A0000BE008BB12E81BBB23DF0FEF08BB07E026
:1002B00008BB12E81BBB1CDF0FEF08BB18950EE054
:1002C00008BB18EF1BBB14DF0FEF08BB0DE008BB2A
:1002D00018EF1BBB0DDF0FEF08BB0BE008BB18EFDF
:1002E0001BBB06DF0FEF08BB07E008BB18EF1BBB0B
:1002F000FFDE0FEF08BB18950EE008BB10E81BBB34
:10030000F7DE0FEF08BB0DE008BB10E81BBBF0DE0B
:100310000FEF08BB0BE008BB10E81BBBE9DE0FEFDB
:1003200008BB07E008BB10E81BBBE2DE0FEF08BB11
:1003300018950EE008BB18E91BBBDADE0FEF08BB0F
:100340000DE008BB18E91BBBD3DE0FEF08BB0BE0C9
:1003500008BB18E91BBBCCDE0FEF08BB07E008BBEE
:1003600018E91BBBC5DE0FEF08BB18950EE008BBF4
:1003700010EC1BBB42D00FEF08BB0DE008BB19EF20
:100380001BBB3BD00FEF08BB0BE008BB14EA1BBB49
:1003900034D00FEF08BB07E008BB10EB1BBB2DD020
:1003A0000FEF08BB0EE008BB19E91BBB26D00FEF0F
:1003B00008BB0DE008BB12E91BBB1FD00FEF08BB49
:1003C0000BE008BB12E81BBB18D00FEF08BB07E01F
:1003D00008BB18EF1BBB11D00FEF08BB0EE008BB2A
:1003E00010E81BBB0AD00FEF08BB0DE008BB18E9F3
:1003F0001BBB03D00FEF08BB1895A8ECB0EABA9569
:08040000F1F7AA95E1F7189548
:00000001FF
