S00C0000344C43442E7372656311
S113000010C022C021C020C01FC01EC01DC01CC003
S11300101BC01AC019C018C017C016C015C014C020
S113002013C011241FBECFE5D2E0DEBFCDBF10E068
S1130030A0E6B0E0EEE0F1E002C005900D92A63734
S1130040B107D9F74BD061C0DBCF85BB8BB37695B5
S1130050762F662777956795682B6BBBDD9A85E0CD
S11300608A95F1F70000DD9887EC90E00197F1F7AD
S113007000C000008FE39FE10197F1F700C000008A
S11300800895CF93DF93EC018881882339F021967A
S113009061E070E0DADF89918111FACFDF91CF91CD
S11300A008950F931F93CF93DF93C0E7D0E005E744
S11300B010E060E070E08991C8DFC017D107C9F78C
S11300C02FEF89EF90E0215080409040E1F700C08D
S11300D00000DF91CF911F910F9108958FEF84BBA2
S11300E08AB3806A8ABBDDDF60E070E080E8ADDF60
S11300F080E690E0C6DF2FEF83ED90E3215080404F
S11101009040E1F700C00000EFCFF894FFCF6D
S113010E446173205220436F6E7472657261730082
S109011E3838380C06011C
S9030000FC
