S01000003250656E64756C6F2E737265630B
S113000010C022C021C020C01FC01EC01DC01CC003
S11300101BC01AC019C018C017C016C015C014C020
S113002013C011241FBECFE5D2E0DEBFCDBF10E068
S1130030A0E6B0E0E8EFF0E002C005900D92A23631
S1130040B107D9F713D056C0DBCF181619066CF4D4
S113005020E030E0EFE9FFE03197F1F700C0000065
S11300602F5F3F4F82179307A9F7089587B387BB84
S113007088B3866088BB81E084BB9FEF9ABB8BBB4F
S1130080C1E004E110E08091600090916100DDDF47
S11300908BB3880F8BBB8BB3803809F4CBBBB1997E
S11300A019C015BA80916000909161004497843121
S11300B091052CF0909361008093600004C010932C
S11300C06100009360008091600090916100BDDF49
S11300D0B19BFECFB299D7CFC5BB80916000909100
S11300E0610044969093610080936000AEDFB29B00
S10B00F0FECFC9CFF894FFCF45
S10500F81400EE
S9030000FC
