:020000020000FC
:1000000010C06CC06CC06CC06CC06CC06CC06CC0EC
:100010006CC06CC06DC06DC06DC06DC06DC06DC07A
:100020006DC002E00EBF0FE50DBFF89437D08D9A7A
:1000300002EA0FBD0DE10EBD08E304BD01E005BD00
:1000400007E10ABD08BD00E00BBD08BD78946F3420
:1000500061F0663499F038D000E005BB07E10ABDD5
:1000600008BD00E00BBD09BDF2CF01E005BB0FE00C
:100070000ABD00E00BBD1ED06627E9CF02E005BB3C
:100080000FE008BD00E009BD15D06627E0CF07E10D
:100090000ABD08BD00E00BBD09BDD9CF899A00E0BB
:1000A00000BD0FEC09B902E00BB908E90AB906E88E
:1000B00000BD08953FEF2FEF18EC1A95F1F72A9540
:1000C000D9F73A95C1F708953FEF2FEF12E31A954C
:1000D000F1F72A95D9F73A95C1F70895189518952B
:1000E0001895189518951895189518956CB1189538
:0E00F000189518951895189518951895189547
:00000001FF
