:020000020000FC
:040000000C94240137
:10020000F7008F1239000F12F900F100BD00F6005F
:1002100009121E0070243800360536213F00F30015
:100220003F20F3208D0101123E00300C3628002DB6
:100230000015090C3F0C0604DB008F00E600ED0002
:10024000FD000114FF00E70004E00EBF0FEF0DBF3B
:100250001FEF1ABB1FEF17BB00C0E0E0F2E044E263
:10026000259128BB35913BBB03D04A95C9F7F5CF03
:100270003FEF2FEF16E01A95F1F72A95D9F73A9547
:04028000C1F7089525
:00000001FF
