:020000020000FC
:1000000010C090C09DC0ADC0ADC0ADC0ADC0ADC052
:10001000ADC0ADC0ADC0ADC0ADC0ADC0ADC0ADC078
:10002000ADC002E00EBF0FE50DBFF89406E006B9C3
:100030000FE00ABB03E801BB0FEF02BB08E500932A
:1000400062000AE005BF00EC0BBF789401D0FECF40
:10005000849B11D0859B13D0869B09D000916000B2
:10006000002339F1013079F00230C1F0089500E049
:1000700000936000089501E000936000089502E09D
:1000800000936000089501E00BBB3AD0000F859B00
:10009000DFCF869BDDCF0031B1F3F6CF08E00BBB9D
:1000A0002FD00695849BD4CF869BD2CF0030B1F35E
:1000B000F6CF00E00BBB849B0895859B0895F9CF94
:1000C000332700E00093900000939100009392008A
:1000D000243690F0339524562436D2F7309390008E
:1000E00033272A3058F033952A502A30D2F73093EC
:1000F000910020939200089530E0F0CF30E0F7CFE8
:100100003091620028EC10E51A95F1F72A95D9F79D
:100110003A95C1F708953FE02FEF2A95F1F73A9508
:10012000D9F70895609162006530C0F06B506B3074
:1001300018F06093620018956BE060936200189568
:10014000609162006D3F50F4655F6F3F18F46093FB
:10015000620018956DEF60936200189560936200DD
:100160001895189518951895189518951895189527
:0E0170001895189518951895189518951895C6
:00000001FF
