:020000020000FC
:1000000010C057C061C06BC06BC06BC06BC06BC011
:100010006BC06BC06BC06BC06BC06BC06BC06BC088
:100020006BC002E00EBF0FE50DBFF89480E090E0DA
:10003000A0E0B0E065E070E0B89AB99ABA9ABB9ACD
:10004000C19AC098C29AC3988A98929A8B98939AA8
:100050000AE005BF00EC0BBF329A8D9A00E00DBD9F
:100060000CBD00E00BBD0ABD09BD08BD02EA0FBD15
:1000700009E00EBD7894AF3F21F4B13009F406C019
:10008000B395A395B9BDA8BD0DD0F5CFA03021F48F
:10009000B13009F0F0CFBA95AA95B9BDA8BD02D08C
:1000A000F5CFE9CF2AE01FEF1A95F1F72A95D9F796
:1000B00008958F3F21F4913009F418958BEF860F46
:1000C000971F9BBD8ABD1895803021F4903009F4AC
:1000D000189584E0861B970B9BBD8ABD18951895D3
:1000E00018951895189518951895189518951895A8
:0A00F00018951895189518951895A5
:00000001FF
