S01B00003350656E64756C6F496E7465727275707464732E737265635B
S113000010C03FC059C020C01FC01EC01DC01CC0AE
S11300101BC01AC019C018C017C016C015C014C020
S113002013C011241FBECFE5D2E0DEBFCDBF10E068
S1130030A0E6B0E0E0E3F1E002C005900D92A23644
S1130040B107D9F758D072C0DBCF181619066CF473
S113005020E030E0EFE9FFE03197F1F700C0000065
S11300602F5F3F4F82179307A9F7089585B78A60DA
S113007085BF85B78A7F85BF8BB7806C8BBF78942B
S113008008951F920F920FB60F9211248F939F938E
S1130090809160009091610099232CF00A979093CD
S11300A061008093600082E085BB9F918F910F90E7
S11300B00FBE0F901F9018951F920F920FB60F92BC
S11300C011242F938F939F938091600090916100EE
S11300D0883E23E092072CF40A9690936100809363
S11300E0600081E085BB9F918F912F910F900FBE8F
S11300F00F901F90189581B3837F81BB82B38C606E
S113010082BB81E084BB15BA9FEF9ABB8BBBAEDF89
S1130110C1E0809160009091610097DF8BB3880FFC
S11301208BBB8BB38038A9F7CBBBF3CFF894FFCF4D
S10501300A00BF
S9030000FC
